{
  "contractName": "EthSwap",
  "abi": [
    {
      "inputs": [
        {
          "internalType": "contract Token",
          "name": "_token",
          "type": "address"
        }
      ],
      "payable": false,
      "stateMutability": "nonpayable",
      "type": "constructor"
    },
    {
      "anonymous": false,
      "inputs": [
        {
          "indexed": false,
          "internalType": "address",
          "name": "account",
          "type": "address"
        },
        {
          "indexed": false,
          "internalType": "address",
          "name": "token",
          "type": "address"
        },
        {
          "indexed": false,
          "internalType": "uint256",
          "name": "amount",
          "type": "uint256"
        },
        {
          "indexed": false,
          "internalType": "uint256",
          "name": "rate",
          "type": "uint256"
        }
      ],
      "name": "TokenPurchased",
      "type": "event"
    },
    {
      "anonymous": false,
      "inputs": [
        {
          "indexed": false,
          "internalType": "address",
          "name": "account",
          "type": "address"
        },
        {
          "indexed": false,
          "internalType": "address",
          "name": "token",
          "type": "address"
        },
        {
          "indexed": false,
          "internalType": "uint256",
          "name": "amount",
          "type": "uint256"
        },
        {
          "indexed": false,
          "internalType": "uint256",
          "name": "rate",
          "type": "uint256"
        }
      ],
      "name": "TokenSold",
      "type": "event"
    },
    {
      "constant": true,
      "inputs": [
        {
          "internalType": "address",
          "name": "",
          "type": "address"
        }
      ],
      "name": "liquidity",
      "outputs": [
        {
          "internalType": "uint256",
          "name": "",
          "type": "uint256"
        }
      ],
      "payable": false,
      "stateMutability": "view",
      "type": "function"
    },
    {
      "constant": true,
      "inputs": [],
      "name": "name",
      "outputs": [
        {
          "internalType": "string",
          "name": "",
          "type": "string"
        }
      ],
      "payable": false,
      "stateMutability": "view",
      "type": "function"
    },
    {
      "constant": true,
      "inputs": [],
      "name": "rate",
      "outputs": [
        {
          "internalType": "uint256",
          "name": "",
          "type": "uint256"
        }
      ],
      "payable": false,
      "stateMutability": "view",
      "type": "function"
    },
    {
      "constant": true,
      "inputs": [],
      "name": "token",
      "outputs": [
        {
          "internalType": "contract Token",
          "name": "",
          "type": "address"
        }
      ],
      "payable": false,
      "stateMutability": "view",
      "type": "function"
    },
    {
      "constant": true,
      "inputs": [],
      "name": "totalLiquidity",
      "outputs": [
        {
          "internalType": "uint256",
          "name": "",
          "type": "uint256"
        }
      ],
      "payable": false,
      "stateMutability": "view",
      "type": "function"
    },
    {
      "constant": false,
      "inputs": [
        {
          "internalType": "uint256",
          "name": "tokens",
          "type": "uint256"
        }
      ],
      "name": "init",
      "outputs": [
        {
          "internalType": "uint256",
          "name": "",
          "type": "uint256"
        }
      ],
      "payable": true,
      "stateMutability": "payable",
      "type": "function"
    },
    {
      "constant": true,
      "inputs": [
        {
          "internalType": "uint256",
          "name": "input_amount",
          "type": "uint256"
        },
        {
          "internalType": "uint256",
          "name": "input_reserve",
          "type": "uint256"
        },
        {
          "internalType": "uint256",
          "name": "output_reserve",
          "type": "uint256"
        }
      ],
      "name": "price",
      "outputs": [
        {
          "internalType": "uint256",
          "name": "",
          "type": "uint256"
        }
      ],
      "payable": false,
      "stateMutability": "view",
      "type": "function"
    },
    {
      "constant": true,
      "inputs": [],
      "name": "addre",
      "outputs": [
        {
          "internalType": "address",
          "name": "",
          "type": "address"
        }
      ],
      "payable": false,
      "stateMutability": "view",
      "type": "function"
    },
    {
      "constant": true,
      "inputs": [],
      "name": "addre_ba",
      "outputs": [
        {
          "internalType": "uint256",
          "name": "",
          "type": "uint256"
        }
      ],
      "payable": false,
      "stateMutability": "view",
      "type": "function"
    },
    {
      "constant": false,
      "inputs": [],
      "name": "buyToken",
      "outputs": [],
      "payable": true,
      "stateMutability": "payable",
      "type": "function"
    },
    {
      "constant": false,
      "inputs": [
        {
          "internalType": "uint256",
          "name": "_amount",
          "type": "uint256"
        }
      ],
      "name": "sellToken",
      "outputs": [],
      "payable": false,
      "stateMutability": "nonpayable",
      "type": "function"
    },
    {
      "constant": false,
      "inputs": [],
      "name": "deposit",
      "outputs": [
        {
          "internalType": "uint256",
          "name": "",
          "type": "uint256"
        }
      ],
      "payable": true,
      "stateMutability": "payable",
      "type": "function"
    },
    {
      "constant": false,
      "inputs": [
        {
          "internalType": "uint256",
          "name": "amount",
          "type": "uint256"
        }
      ],
      "name": "withdraw",
      "outputs": [
        {
          "internalType": "uint256",
          "name": "",
          "type": "uint256"
        },
        {
          "internalType": "uint256",
          "name": "",
          "type": "uint256"
        }
      ],
      "payable": false,
      "stateMutability": "nonpayable",
      "type": "function"
    },
    {
      "constant": false,
      "inputs": [],
      "name": "ethToToken",
      "outputs": [
        {
          "internalType": "uint256",
          "name": "",
          "type": "uint256"
        }
      ],
      "payable": true,
      "stateMutability": "payable",
      "type": "function"
    },
    {
      "constant": false,
      "inputs": [
        {
          "internalType": "uint256",
          "name": "tokens",
          "type": "uint256"
        }
      ],
      "name": "tokenToEth",
      "outputs": [
        {
          "internalType": "uint256",
          "name": "",
          "type": "uint256"
        }
      ],
      "payable": false,
      "stateMutability": "nonpayable",
      "type": "function"
    }
  ],
  "bytecode": "0x60806040526040518060400160405280601881526020017f4574685377617020496e7374616e742045786368616e676500000000000000008152506000908051906020019062000051929190620000e3565b5060646002553480156200006457600080fd5b506040516200170638038062001706833981810160405260208110156200008a57600080fd5b810190808051906020019092919050505080600160006101000a81548173ffffffffffffffffffffffffffffffffffffffff021916908373ffffffffffffffffffffffffffffffffffffffff1602179055505062000192565b828054600181600116156101000203166002900490600052602060002090601f016020900481019282601f106200012657805160ff191683800117855562000157565b8280016001018555821562000157579182015b828111156200015657825182559160200191906001019062000139565b5b5090506200016691906200016a565b5090565b6200018f91905b808211156200018b57600081600090555060010162000171565b5090565b90565b61156480620001a26000396000f3fe6080604052600436106100e85760003560e01c806370b2a30f1161008a578063b8c876b111610059578063b8c876b1146103d7578063d0e30db01461043c578063d445b3c11461045a578063fc0c546a14610485576100e8565b806370b2a30f1461031e578063789770f41461036d578063a48217191461038b578063b7b0422d14610395576100e8565b80632397e4d7116100c65780632397e4d71461020b5780632944d2a4146102465780632c4e722e1461029d5780632e1a7d4d146102c8576100e8565b806306fdde03146100ed57806315770f921461017d5780632071a9f4146101a8575b600080fd5b3480156100f957600080fd5b506101026104dc565b6040518080602001828103825283818151815260200191508051906020019080838360005b83811015610142578082015181840152602081019050610127565b50505050905090810190601f16801561016f5780820380516001836020036101000a031916815260200191505b509250505060405180910390f35b34801561018957600080fd5b5061019261057a565b6040518082815260200191505060405180910390f35b3480156101b457600080fd5b506101f5600480360360608110156101cb57600080fd5b81019080803590602001909291908035906020019092919080359060200190929190505050610580565b6040518082815260200191505060405180910390f35b34801561021757600080fd5b506102446004803603602081101561022e57600080fd5b81019080803590602001909291905050506105c7565b005b34801561025257600080fd5b5061025b610913565b604051808273ffffffffffffffffffffffffffffffffffffffff1673ffffffffffffffffffffffffffffffffffffffff16815260200191505060405180910390f35b3480156102a957600080fd5b506102b261091b565b6040518082815260200191505060405180910390f35b3480156102d457600080fd5b50610301600480360360208110156102eb57600080fd5b8101908080359060200190929190505050610921565b604051808381526020018281526020019250505060405180910390f35b34801561032a57600080fd5b506103576004803603602081101561034157600080fd5b8101908080359060200190929190505050610c15565b6040518082815260200191505060405180910390f35b610375610d71565b6040518082815260200191505060405180910390f35b610393610e80565b005b6103c1600480360360208110156103ab57600080fd5b8101908080359060200190929190505050611125565b6040518082815260200191505060405180910390f35b3480156103e357600080fd5b50610426600480360360208110156103fa57600080fd5b81019080803573ffffffffffffffffffffffffffffffffffffffff1690602001909291905050506111f5565b6040518082815260200191505060405180910390f35b61044461120d565b6040518082815260200191505060405180910390f35b34801561046657600080fd5b5061046f6114ea565b6040518082815260200191505060405180910390f35b34801561049157600080fd5b5061049a611509565b604051808273ffffffffffffffffffffffffffffffffffffffff1673ffffffffffffffffffffffffffffffffffffffff16815260200191505060405180910390f35b60008054600181600116156101000203166002900480601f0160208091040260200160405190810160405280929190818152602001828054600181600116156101000203166002900480156105725780601f1061054757610100808354040283529160200191610572565b820191906000526020600020905b81548152906001019060200180831161055557829003601f168201915b505050505081565b60035481565b6000806103e5858161058e57fe5b049050600083828161059c57fe5b0490506000826103e887816105ad57fe5b040190508082816105ba57fe5b0493505050509392505050565b600033905081600160009054906101000a900473ffffffffffffffffffffffffffffffffffffffff1673ffffffffffffffffffffffffffffffffffffffff166370a08231336040518263ffffffff1660e01b8152600401808273ffffffffffffffffffffffffffffffffffffffff1673ffffffffffffffffffffffffffffffffffffffff16815260200191505060206040518083038186803b15801561066c57600080fd5b505afa158015610680573d6000803e3d6000fd5b505050506040513d602081101561069657600080fd5b810190808051906020019092919050505010156106b257600080fd5b60006106bd83610c15565b9050803073ffffffffffffffffffffffffffffffffffffffff163110156106e357600080fd5b600160009054906101000a900473ffffffffffffffffffffffffffffffffffffffff1673ffffffffffffffffffffffffffffffffffffffff166323b872dd3330866040518463ffffffff1660e01b8152600401808473ffffffffffffffffffffffffffffffffffffffff1673ffffffffffffffffffffffffffffffffffffffff1681526020018373ffffffffffffffffffffffffffffffffffffffff1673ffffffffffffffffffffffffffffffffffffffff1681526020018281526020019350505050602060405180830381600087803b1580156107c057600080fd5b505af11580156107d4573d6000803e3d6000fd5b505050506040513d60208110156107ea57600080fd5b8101908080519060200190929190505050508173ffffffffffffffffffffffffffffffffffffffff166108fc829081150290604051600060405180830381858888f19350505050158015610842573d6000803e3d6000fd5b507fa8a7473f10e62cf9687e243de1c3ac8b3cbc3dd04b96826beb3a65b59538581433600160009054906101000a900473ffffffffffffffffffffffffffffffffffffffff1685600254604051808573ffffffffffffffffffffffffffffffffffffffff1673ffffffffffffffffffffffffffffffffffffffff1681526020018473ffffffffffffffffffffffffffffffffffffffff1673ffffffffffffffffffffffffffffffffffffffff16815260200183815260200182815260200194505050505060405180910390a1505050565b600030905090565b60025481565b60008060003390506000600160009054906101000a900473ffffffffffffffffffffffffffffffffffffffff1673ffffffffffffffffffffffffffffffffffffffff166370a08231306040518263ffffffff1660e01b8152600401808273ffffffffffffffffffffffffffffffffffffffff1673ffffffffffffffffffffffffffffffffffffffff16815260200191505060206040518083038186803b1580156109ca57600080fd5b505afa1580156109de573d6000803e3d6000fd5b505050506040513d60208110156109f457600080fd5b8101908080519060200190929190505050905060006003543073ffffffffffffffffffffffffffffffffffffffff1631870281610a2d57fe5b049050600060035483880281610a3f57fe5b04905081600460003373ffffffffffffffffffffffffffffffffffffffff1673ffffffffffffffffffffffffffffffffffffffff1681526020019081526020016000205403600460003373ffffffffffffffffffffffffffffffffffffffff1673ffffffffffffffffffffffffffffffffffffffff1681526020019081526020016000208190555081600354036003819055508373ffffffffffffffffffffffffffffffffffffffff166108fc839081150290604051600060405180830381858888f19350505050158015610b18573d6000803e3d6000fd5b50600160009054906101000a900473ffffffffffffffffffffffffffffffffffffffff1673ffffffffffffffffffffffffffffffffffffffff1663a9059cbb33836040518363ffffffff1660e01b8152600401808373ffffffffffffffffffffffffffffffffffffffff1673ffffffffffffffffffffffffffffffffffffffff16815260200182815260200192505050602060405180830381600087803b158015610bc257600080fd5b505af1158015610bd6573d6000803e3d6000fd5b505050506040513d6020811015610bec57600080fd5b8101908080519060200190929190505050610c0657600080fd5b81819550955050505050915091565b6000803390506000600160009054906101000a900473ffffffffffffffffffffffffffffffffffffffff1673ffffffffffffffffffffffffffffffffffffffff166370a08231306040518263ffffffff1660e01b8152600401808273ffffffffffffffffffffffffffffffffffffffff1673ffffffffffffffffffffffffffffffffffffffff16815260200191505060206040518083038186803b158015610cbc57600080fd5b505afa158015610cd0573d6000803e3d6000fd5b505050506040513d6020811015610ce657600080fd5b810190808051906020019092919050505090506000610d1d85833073ffffffffffffffffffffffffffffffffffffffff1631610580565b90508273ffffffffffffffffffffffffffffffffffffffff166108fc829081150290604051600060405180830381858888f19350505050158015610d65573d6000803e3d6000fd5b50809350505050919050565b600080600160009054906101000a900473ffffffffffffffffffffffffffffffffffffffff1673ffffffffffffffffffffffffffffffffffffffff166370a08231306040518263ffffffff1660e01b8152600401808273ffffffffffffffffffffffffffffffffffffffff1673ffffffffffffffffffffffffffffffffffffffff16815260200191505060206040518083038186803b158015610e1357600080fd5b505afa158015610e27573d6000803e3d6000fd5b505050506040513d6020811015610e3d57600080fd5b810190808051906020019092919050505090506000610e7634343073ffffffffffffffffffffffffffffffffffffffff16310384610580565b9050809250505090565b6000610e8a610d71565b905080600160009054906101000a900473ffffffffffffffffffffffffffffffffffffffff1673ffffffffffffffffffffffffffffffffffffffff166370a08231306040518263ffffffff1660e01b8152600401808273ffffffffffffffffffffffffffffffffffffffff1673ffffffffffffffffffffffffffffffffffffffff16815260200191505060206040518083038186803b158015610f2c57600080fd5b505afa158015610f40573d6000803e3d6000fd5b505050506040513d6020811015610f5657600080fd5b81019080805190602001909291905050501015610f7257600080fd5b600160009054906101000a900473ffffffffffffffffffffffffffffffffffffffff1673ffffffffffffffffffffffffffffffffffffffff1663a9059cbb33836040518363ffffffff1660e01b8152600401808373ffffffffffffffffffffffffffffffffffffffff1673ffffffffffffffffffffffffffffffffffffffff16815260200182815260200192505050602060405180830381600087803b15801561101b57600080fd5b505af115801561102f573d6000803e3d6000fd5b505050506040513d602081101561104557600080fd5b8101908080519060200190929190505050507f8daf503382665d950e449b86172be5222275c90f4ddf69c29fdaa8237a562a6d33600160009054906101000a900473ffffffffffffffffffffffffffffffffffffffff1683600254604051808573ffffffffffffffffffffffffffffffffffffffff1673ffffffffffffffffffffffffffffffffffffffff1681526020018473ffffffffffffffffffffffffffffffffffffffff1673ffffffffffffffffffffffffffffffffffffffff16815260200183815260200182815260200194505050505060405180910390a150565b6000806003541461119e576040517f08c379a00000000000000000000000000000000000000000000000000000000081526004018080602001828103825260208152602001807f4445583a696e6974202d20616c726561647920686173206c697175696469747981525060200191505060405180910390fd5b81600381905550600354600460003373ffffffffffffffffffffffffffffffffffffffff1673ffffffffffffffffffffffffffffffffffffffff168152602001908152602001600020819055506003549050919050565b60046020528060005260406000206000915090505481565b600080343073ffffffffffffffffffffffffffffffffffffffff16310390506000600160009054906101000a900473ffffffffffffffffffffffffffffffffffffffff1673ffffffffffffffffffffffffffffffffffffffff166370a08231306040518263ffffffff1660e01b8152600401808273ffffffffffffffffffffffffffffffffffffffff1673ffffffffffffffffffffffffffffffffffffffff16815260200191505060206040518083038186803b1580156112cd57600080fd5b505afa1580156112e1573d6000803e3d6000fd5b505050506040513d60208110156112f757600080fd5b8101908080519060200190929190505050905060006001838334028161131957fe5b0401905060008360035434028161132c57fe5b04905080600460003373ffffffffffffffffffffffffffffffffffffffff1673ffffffffffffffffffffffffffffffffffffffff1681526020019081526020016000205401600460003373ffffffffffffffffffffffffffffffffffffffff1673ffffffffffffffffffffffffffffffffffffffff168152602001908152602001600020819055508060035401600381905550600160009054906101000a900473ffffffffffffffffffffffffffffffffffffffff1673ffffffffffffffffffffffffffffffffffffffff166323b872dd3330856040518463ffffffff1660e01b8152600401808473ffffffffffffffffffffffffffffffffffffffff1673ffffffffffffffffffffffffffffffffffffffff1681526020018373ffffffffffffffffffffffffffffffffffffffff1673ffffffffffffffffffffffffffffffffffffffff1681526020018281526020019350505050602060405180830381600087803b15801561149c57600080fd5b505af11580156114b0573d6000803e3d6000fd5b505050506040513d60208110156114c657600080fd5b81019080805190602001909291905050506114e057600080fd5b8094505050505090565b60003073ffffffffffffffffffffffffffffffffffffffff1631905090565b600160009054906101000a900473ffffffffffffffffffffffffffffffffffffffff168156fea265627a7a723158205876ac75a94f5fdfaba2629e3805e76aa5f4803bc586d59e338cd52c3a79e41e64736f6c63430005100032",
  "source": "// pragma solidity >=0.5.0;\r\n\r\n// import \"./Token.sol\" ;\r\n\r\n// contract EthSwap {\r\n//     string public name = \"EthSwap Instant Exchange\"; // read this variable value outside of the smart contract\r\n//     Token public token;\r\n//     uint public rate = 100 ;\r\n\r\n//     event TokenPurchased (address account , address token , uint amount , uint rate);\r\n//     event TokenSold (address account , address token , uint amount , uint rate);\r\n\r\n//     constructor (Token _token) public {\r\n//         token = _token;\r\n//     }\r\n\r\n//     function buyToken() public payable{\r\n//         // Calculate the number of token to buy\r\n//         uint tokenAmount = msg.value * rate ;\r\n\r\n//         //Require that EthSwap has enough token\r\n//         require(token.balanceOf(address(this)) >= tokenAmount);\r\n        \r\n//         //Transfer token to the user\r\n//         token.transfer(msg.sender,tokenAmount);\r\n\r\n//         //Emit on event\r\n//         emit TokenPurchased(msg.sender, address(token), tokenAmount, rate);\r\n//     }\r\n\r\n//     function sellToken(uint _amount) public  {  \r\n    \r\n//         address payable addr = address(uint160(msg.sender));\r\n       \r\n//          // User can't sell more tokens than they have\r\n//         require(token.balanceOf(msg.sender) >= _amount);\r\n\r\n//         // Calculate the amount of Ether to redeem\r\n//         uint etherAmount = _amount / rate;\r\n\r\n//         // Require that EthSwap has enough Ether\r\n//         require(address(this).balance >= etherAmount);\r\n\r\n//         // Perform sale\r\n//         token.transferFrom(msg.sender, address(this), _amount);\r\n//         addr.transfer(etherAmount);\r\n\r\n//         // Emit an event\r\n//         emit TokenSold(msg.sender, address(token), _amount, rate);\r\n//     }\r\n// }\r\npragma solidity >=0.5.0;\r\n\r\nimport \"./Token.sol\" ;\r\n\r\ncontract EthSwap {\r\n    string public name = \"EthSwap Instant Exchange\"; // read this variable value outside of the smart contract\r\n    Token public token;\r\n    uint public rate = 100 ;\r\n    uint public totalLiquidity;\r\n    mapping (address => uint) public liquidity;\r\n\r\n    event TokenPurchased (address account , address token , uint amount , uint rate);\r\n    event TokenSold (address account , address token , uint amount , uint rate);\r\n\r\n    constructor (Token _token) public {\r\n        token = _token;\r\n    }\r\n    \r\n    function init(uint256 tokens) public payable returns (uint) {\r\n      require(totalLiquidity==0,\"DEX:init - already has liquidity\");\r\n    //   totalLiquidity = address(this).balance;\r\n      totalLiquidity = tokens;\r\n      liquidity[msg.sender] = totalLiquidity;\r\n      //require(token.transferFrom(msg.sender, address(this), tokens));\r\n      return totalLiquidity;\r\n    }\r\n    \r\n    function price(uint256 input_amount, uint256 input_reserve, uint256 output_reserve) public view returns (uint) {\r\n      uint256 input_amount_with_fee = input_amount/997;\r\n      uint256 numerator = input_amount_with_fee/output_reserve;\r\n      uint256 denominator = input_reserve/1000+input_amount_with_fee;\r\n      return numerator / denominator;\r\n    }\r\n    \r\n    function addre() view public returns (address){\r\n        return address(this);\r\n    }\r\n    function addre_ba() view public returns (uint){\r\n        return address(this).balance;\r\n    }\r\n\r\n    function buyToken() public payable{\r\n        // Calculate the number of token to buy\r\n        uint tokenAmount = ethToToken() ;\r\n\r\n        //Require that EthSwap has enough token\r\n        require(token.balanceOf(address(this)) >= tokenAmount);\r\n        \r\n        //Transfer token to the user\r\n        token.transfer(msg.sender,tokenAmount);\r\n\r\n        //Emit on event\r\n        emit TokenPurchased(msg.sender, address(token), tokenAmount, rate);\r\n    }\r\n\r\n    function sellToken(uint _amount) public  {  \r\n    \r\n        address payable addr = address(uint160(msg.sender));\r\n       \r\n         // User can't sell more tokens than they have\r\n        require(token.balanceOf(msg.sender) >= _amount);\r\n\r\n        // Calculate the amount of Ether to redeem\r\n        uint etherAmount = tokenToEth(_amount);\r\n\r\n        // Require that EthSwap has enough Ether\r\n        require(address(this).balance >= etherAmount);\r\n\r\n        // Perform sale\r\n        token.transferFrom(msg.sender, address(this), _amount);\r\n        addr.transfer(etherAmount);\r\n\r\n        // Emit an event\r\n        emit TokenSold(msg.sender, address(token), _amount, rate);\r\n    }\r\n    \r\n    function deposit() public payable returns (uint256) {\r\n      uint256 eth_reserve = address(this).balance-(msg.value);\r\n      uint256 token_reserve = token.balanceOf(address(this));\r\n      uint256 token_amount = (msg.value*(token_reserve) / eth_reserve)+(1);\r\n      uint256 liquidity_minted = msg.value*(totalLiquidity) / eth_reserve;\r\n      liquidity[msg.sender] = liquidity[msg.sender]+(liquidity_minted);\r\n      totalLiquidity = totalLiquidity+(liquidity_minted);\r\n      require(token.transferFrom(msg.sender, address(this), token_amount));\r\n      return liquidity_minted;\r\n    }\r\n    function withdraw(uint256 amount) public returns (uint256, uint256) {\r\n      address payable addr = address(uint160(msg.sender));\r\n      uint256 token_reserve = token.balanceOf(address(this));\r\n      uint256 eth_amount = amount*(address(this).balance) / totalLiquidity;\r\n      uint256 token_amount = amount*(token_reserve) / totalLiquidity;\r\n      liquidity[msg.sender] = liquidity[msg.sender]-(eth_amount);\r\n      totalLiquidity = totalLiquidity-(eth_amount);\r\n      addr.transfer(eth_amount);\r\n      require(token.transfer(msg.sender, token_amount));\r\n      return (eth_amount, token_amount);\r\n    }\r\n    function ethToToken() public payable returns (uint256) {\r\n      uint256 token_reserve = token.balanceOf(address(this));\r\n      uint256 tokens_bought = price(msg.value, address(this).balance-(msg.value), token_reserve);\r\n      //require(token.transfer(msg.sender, tokens_bought));\r\n      return tokens_bought;\r\n    }\r\n    function tokenToEth(uint256 tokens) public returns (uint256) {\r\n      address payable addr = address(uint160(msg.sender));\r\n      uint256 token_reserve = token.balanceOf(address(this));\r\n      uint256 eth_bought = price(tokens, token_reserve, address(this).balance);\r\n      addr.transfer(eth_bought);\r\n      //require(token.transferFrom(msg.sender, address(this), tokens));\r\n      return eth_bought;\r\n    }\r\n}",
  "sourcePath": "C:\\Users\\Natakit\\Desktop\\cs project\\swap\\src\\contracts\\EthSwap.sol",
  "compiler": {
    "name": "solc",
    "version": "0.5.16+commit.9c3226ce.Emscripten.clang"
  },
  "schemaVersion": "3.0.23",
  "updatedAt": "2021-08-10T08:39:59.747Z",
  "networkType": "ethereum",
  "devdoc": {
    "methods": {}
  },
  "userdoc": {
    "methods": {}
  }
}